{
  "_format": "hh-sol-artifact-1",
  "contractName": "NFTMarketplace",
  "sourceName": "contracts/NFTMarketplace.sol",
  "abi": [
    {
      "inputs": [],
      "stateMutability": "nonpayable",
      "type": "constructor"
    },
    {
      "anonymous": false,
      "inputs": [
        {
          "indexed": true,
          "internalType": "address",
          "name": "owner",
          "type": "address"
        },
        {
          "indexed": true,
          "internalType": "address",
          "name": "approved",
          "type": "address"
        },
        {
          "indexed": true,
          "internalType": "uint256",
          "name": "tokenId",
          "type": "uint256"
        }
      ],
      "name": "Approval",
      "type": "event"
    },
    {
      "anonymous": false,
      "inputs": [
        {
          "indexed": true,
          "internalType": "address",
          "name": "owner",
          "type": "address"
        },
        {
          "indexed": true,
          "internalType": "address",
          "name": "operator",
          "type": "address"
        },
        {
          "indexed": false,
          "internalType": "bool",
          "name": "approved",
          "type": "bool"
        }
      ],
      "name": "ApprovalForAll",
      "type": "event"
    },
    {
      "anonymous": false,
      "inputs": [
        {
          "indexed": true,
          "internalType": "uint256",
          "name": "tokenId",
          "type": "uint256"
        },
        {
          "indexed": false,
          "internalType": "address",
          "name": "seller",
          "type": "address"
        },
        {
          "indexed": false,
          "internalType": "uint256",
          "name": "price",
          "type": "uint256"
        },
        {
          "indexed": false,
          "internalType": "bool",
          "name": "sold",
          "type": "bool"
        }
      ],
      "name": "AuctionItemCreated",
      "type": "event"
    },
    {
      "anonymous": false,
      "inputs": [
        {
          "indexed": false,
          "internalType": "uint256",
          "name": "tokenId",
          "type": "uint256"
        },
        {
          "indexed": false,
          "internalType": "address",
          "name": "winner",
          "type": "address"
        },
        {
          "indexed": false,
          "internalType": "uint256",
          "name": "price",
          "type": "uint256"
        }
      ],
      "name": "AuctionWinnerPicked",
      "type": "event"
    },
    {
      "anonymous": false,
      "inputs": [
        {
          "indexed": false,
          "internalType": "uint256",
          "name": "_fromTokenId",
          "type": "uint256"
        },
        {
          "indexed": false,
          "internalType": "uint256",
          "name": "_toTokenId",
          "type": "uint256"
        }
      ],
      "name": "BatchMetadataUpdate",
      "type": "event"
    },
    {
      "anonymous": false,
      "inputs": [
        {
          "indexed": false,
          "internalType": "uint256",
          "name": "_tokenId",
          "type": "uint256"
        }
      ],
      "name": "MetadataUpdate",
      "type": "event"
    },
    {
      "anonymous": false,
      "inputs": [
        {
          "indexed": false,
          "internalType": "uint256",
          "name": "tokenId",
          "type": "uint256"
        },
        {
          "indexed": false,
          "internalType": "bool",
          "name": "isListed",
          "type": "bool"
        }
      ],
      "name": "NFTListed",
      "type": "event"
    },
    {
      "anonymous": false,
      "inputs": [
        {
          "indexed": false,
          "internalType": "uint256",
          "name": "tokenId",
          "type": "uint256"
        },
        {
          "indexed": true,
          "internalType": "address",
          "name": "buyer",
          "type": "address"
        },
        {
          "indexed": true,
          "internalType": "address",
          "name": "seller",
          "type": "address"
        },
        {
          "indexed": false,
          "internalType": "uint256",
          "name": "price",
          "type": "uint256"
        },
        {
          "indexed": false,
          "internalType": "uint256",
          "name": "fee",
          "type": "uint256"
        }
      ],
      "name": "NFTSold",
      "type": "event"
    },
    {
      "anonymous": false,
      "inputs": [
        {
          "indexed": false,
          "internalType": "uint256",
          "name": "tokenId",
          "type": "uint256"
        },
        {
          "indexed": false,
          "internalType": "uint256",
          "name": "price",
          "type": "uint256"
        },
        {
          "indexed": true,
          "internalType": "address",
          "name": "creator",
          "type": "address"
        },
        {
          "indexed": false,
          "internalType": "bool",
          "name": "isListed",
          "type": "bool"
        }
      ],
      "name": "NftItemCreated",
      "type": "event"
    },
    {
      "anonymous": false,
      "inputs": [
        {
          "indexed": true,
          "internalType": "address",
          "name": "previousOwner",
          "type": "address"
        },
        {
          "indexed": true,
          "internalType": "address",
          "name": "newOwner",
          "type": "address"
        }
      ],
      "name": "OwnershipTransferred",
      "type": "event"
    },
    {
      "anonymous": false,
      "inputs": [
        {
          "indexed": true,
          "internalType": "address",
          "name": "from",
          "type": "address"
        },
        {
          "indexed": true,
          "internalType": "address",
          "name": "to",
          "type": "address"
        },
        {
          "indexed": true,
          "internalType": "uint256",
          "name": "tokenId",
          "type": "uint256"
        }
      ],
      "name": "Transfer",
      "type": "event"
    },
    {
      "inputs": [
        {
          "internalType": "address",
          "name": "to",
          "type": "address"
        },
        {
          "internalType": "uint256",
          "name": "tokenId",
          "type": "uint256"
        }
      ],
      "name": "approve",
      "outputs": [],
      "stateMutability": "nonpayable",
      "type": "function"
    },
    {
      "inputs": [
        {
          "internalType": "address",
          "name": "owner",
          "type": "address"
        }
      ],
      "name": "balanceOf",
      "outputs": [
        {
          "internalType": "uint256",
          "name": "",
          "type": "uint256"
        }
      ],
      "stateMutability": "view",
      "type": "function"
    },
    {
      "inputs": [
        {
          "internalType": "uint256",
          "name": "tokenId",
          "type": "uint256"
        }
      ],
      "name": "buyNFT",
      "outputs": [],
      "stateMutability": "payable",
      "type": "function"
    },
    {
      "inputs": [
        {
          "internalType": "uint256",
          "name": "tokenId",
          "type": "uint256"
        },
        {
          "internalType": "uint256",
          "name": "price",
          "type": "uint256"
        }
      ],
      "name": "changeNFTPrice",
      "outputs": [],
      "stateMutability": "nonpayable",
      "type": "function"
    },
    {
      "inputs": [],
      "name": "closeAuctionsFromCronjob",
      "outputs": [],
      "stateMutability": "nonpayable",
      "type": "function"
    },
    {
      "inputs": [
        {
          "internalType": "uint256",
          "name": "tokenId",
          "type": "uint256"
        }
      ],
      "name": "getApproved",
      "outputs": [
        {
          "internalType": "address",
          "name": "",
          "type": "address"
        }
      ],
      "stateMutability": "view",
      "type": "function"
    },
    {
      "inputs": [],
      "name": "getAuctions",
      "outputs": [
        {
          "components": [
            {
              "internalType": "uint256",
              "name": "tokenId",
              "type": "uint256"
            },
            {
              "internalType": "address",
              "name": "seller",
              "type": "address"
            },
            {
              "internalType": "address",
              "name": "winner",
              "type": "address"
            },
            {
              "internalType": "uint256",
              "name": "price",
              "type": "uint256"
            },
            {
              "internalType": "bool",
              "name": "sold",
              "type": "bool"
            },
            {
              "internalType": "bool",
              "name": "live",
              "type": "bool"
            },
            {
              "internalType": "uint256",
              "name": "bids",
              "type": "uint256"
            },
            {
              "internalType": "uint256",
              "name": "duration",
              "type": "uint256"
            }
          ],
          "internalType": "struct NFTMarketplace.AuctionStruct[]",
          "name": "",
          "type": "tuple[]"
        }
      ],
      "stateMutability": "view",
      "type": "function"
    },
    {
      "inputs": [
        {
          "internalType": "uint256",
          "name": "tokenId",
          "type": "uint256"
        }
      ],
      "name": "getBidders",
      "outputs": [
        {
          "components": [
            {
              "internalType": "address",
              "name": "bidder",
              "type": "address"
            },
            {
              "internalType": "uint256",
              "name": "price",
              "type": "uint256"
            },
            {
              "internalType": "uint256",
              "name": "timestamp",
              "type": "uint256"
            }
          ],
          "internalType": "struct NFTMarketplace.BidderStruct[]",
          "name": "",
          "type": "tuple[]"
        }
      ],
      "stateMutability": "view",
      "type": "function"
    },
    {
      "inputs": [],
      "name": "getNftsOnSale",
      "outputs": [
        {
          "components": [
            {
              "internalType": "uint256",
              "name": "tokenId",
              "type": "uint256"
            },
            {
              "internalType": "uint256",
              "name": "price",
              "type": "uint256"
            },
            {
              "internalType": "address",
              "name": "creator",
              "type": "address"
            },
            {
              "internalType": "bool",
              "name": "isListed",
              "type": "bool"
            }
          ],
          "internalType": "struct NFTMarketplace.NftItem[]",
          "name": "",
          "type": "tuple[]"
        }
      ],
      "stateMutability": "view",
      "type": "function"
    },
    {
      "inputs": [],
      "name": "getOwnedNfts",
      "outputs": [
        {
          "components": [
            {
              "internalType": "uint256",
              "name": "tokenId",
              "type": "uint256"
            },
            {
              "internalType": "uint256",
              "name": "price",
              "type": "uint256"
            },
            {
              "internalType": "address",
              "name": "creator",
              "type": "address"
            },
            {
              "internalType": "bool",
              "name": "isListed",
              "type": "bool"
            }
          ],
          "internalType": "struct NFTMarketplace.NftItem[]",
          "name": "",
          "type": "tuple[]"
        }
      ],
      "stateMutability": "view",
      "type": "function"
    },
    {
      "inputs": [
        {
          "internalType": "address",
          "name": "owner",
          "type": "address"
        },
        {
          "internalType": "address",
          "name": "operator",
          "type": "address"
        }
      ],
      "name": "isApprovedForAll",
      "outputs": [
        {
          "internalType": "bool",
          "name": "",
          "type": "bool"
        }
      ],
      "stateMutability": "view",
      "type": "function"
    },
    {
      "inputs": [
        {
          "internalType": "string",
          "name": "newTokenURI",
          "type": "string"
        },
        {
          "internalType": "uint256",
          "name": "price",
          "type": "uint256"
        }
      ],
      "name": "mintToken",
      "outputs": [
        {
          "internalType": "uint256",
          "name": "",
          "type": "uint256"
        }
      ],
      "stateMutability": "payable",
      "type": "function"
    },
    {
      "inputs": [],
      "name": "name",
      "outputs": [
        {
          "internalType": "string",
          "name": "",
          "type": "string"
        }
      ],
      "stateMutability": "view",
      "type": "function"
    },
    {
      "inputs": [
        {
          "internalType": "uint256",
          "name": "tokenId",
          "type": "uint256"
        },
        {
          "internalType": "uint256",
          "name": "sec",
          "type": "uint256"
        },
        {
          "internalType": "uint256",
          "name": "min",
          "type": "uint256"
        },
        {
          "internalType": "uint256",
          "name": "hour",
          "type": "uint256"
        },
        {
          "internalType": "uint256",
          "name": "day",
          "type": "uint256"
        }
      ],
      "name": "offerAuction",
      "outputs": [],
      "stateMutability": "nonpayable",
      "type": "function"
    },
    {
      "inputs": [],
      "name": "owner",
      "outputs": [
        {
          "internalType": "address",
          "name": "",
          "type": "address"
        }
      ],
      "stateMutability": "view",
      "type": "function"
    },
    {
      "inputs": [
        {
          "internalType": "uint256",
          "name": "tokenId",
          "type": "uint256"
        }
      ],
      "name": "ownerOf",
      "outputs": [
        {
          "internalType": "address",
          "name": "",
          "type": "address"
        }
      ],
      "stateMutability": "view",
      "type": "function"
    },
    {
      "inputs": [
        {
          "internalType": "uint256",
          "name": "tokenId",
          "type": "uint256"
        }
      ],
      "name": "pickWinner",
      "outputs": [],
      "stateMutability": "nonpayable",
      "type": "function"
    },
    {
      "inputs": [
        {
          "internalType": "uint256",
          "name": "tokenId",
          "type": "uint256"
        }
      ],
      "name": "placeBid",
      "outputs": [],
      "stateMutability": "payable",
      "type": "function"
    },
    {
      "inputs": [],
      "name": "renounceOwnership",
      "outputs": [],
      "stateMutability": "nonpayable",
      "type": "function"
    },
    {
      "inputs": [
        {
          "internalType": "address",
          "name": "from",
          "type": "address"
        },
        {
          "internalType": "address",
          "name": "to",
          "type": "address"
        },
        {
          "internalType": "uint256",
          "name": "tokenId",
          "type": "uint256"
        }
      ],
      "name": "safeTransferFrom",
      "outputs": [],
      "stateMutability": "nonpayable",
      "type": "function"
    },
    {
      "inputs": [
        {
          "internalType": "address",
          "name": "from",
          "type": "address"
        },
        {
          "internalType": "address",
          "name": "to",
          "type": "address"
        },
        {
          "internalType": "uint256",
          "name": "tokenId",
          "type": "uint256"
        },
        {
          "internalType": "bytes",
          "name": "data",
          "type": "bytes"
        }
      ],
      "name": "safeTransferFrom",
      "outputs": [],
      "stateMutability": "nonpayable",
      "type": "function"
    },
    {
      "inputs": [
        {
          "internalType": "address",
          "name": "operator",
          "type": "address"
        },
        {
          "internalType": "bool",
          "name": "approved",
          "type": "bool"
        }
      ],
      "name": "setApprovalForAll",
      "outputs": [],
      "stateMutability": "nonpayable",
      "type": "function"
    },
    {
      "inputs": [
        {
          "internalType": "bytes4",
          "name": "interfaceId",
          "type": "bytes4"
        }
      ],
      "name": "supportsInterface",
      "outputs": [
        {
          "internalType": "bool",
          "name": "",
          "type": "bool"
        }
      ],
      "stateMutability": "view",
      "type": "function"
    },
    {
      "inputs": [],
      "name": "symbol",
      "outputs": [
        {
          "internalType": "string",
          "name": "",
          "type": "string"
        }
      ],
      "stateMutability": "view",
      "type": "function"
    },
    {
      "inputs": [
        {
          "internalType": "uint256",
          "name": "tokenId",
          "type": "uint256"
        }
      ],
      "name": "toggleNFTListing",
      "outputs": [],
      "stateMutability": "nonpayable",
      "type": "function"
    },
    {
      "inputs": [
        {
          "internalType": "uint256",
          "name": "index",
          "type": "uint256"
        }
      ],
      "name": "tokenByIndex",
      "outputs": [
        {
          "internalType": "uint256",
          "name": "",
          "type": "uint256"
        }
      ],
      "stateMutability": "view",
      "type": "function"
    },
    {
      "inputs": [
        {
          "internalType": "address",
          "name": "owner",
          "type": "address"
        },
        {
          "internalType": "uint256",
          "name": "index",
          "type": "uint256"
        }
      ],
      "name": "tokenOfOwnerByIndex",
      "outputs": [
        {
          "internalType": "uint256",
          "name": "",
          "type": "uint256"
        }
      ],
      "stateMutability": "view",
      "type": "function"
    },
    {
      "inputs": [
        {
          "internalType": "uint256",
          "name": "tokenId",
          "type": "uint256"
        }
      ],
      "name": "tokenURI",
      "outputs": [
        {
          "internalType": "string",
          "name": "",
          "type": "string"
        }
      ],
      "stateMutability": "view",
      "type": "function"
    },
    {
      "inputs": [
        {
          "internalType": "string",
          "name": "_tokenURI",
          "type": "string"
        }
      ],
      "name": "tokenURIExists",
      "outputs": [
        {
          "internalType": "bool",
          "name": "",
          "type": "bool"
        }
      ],
      "stateMutability": "view",
      "type": "function"
    },
    {
      "inputs": [],
      "name": "totalSupply",
      "outputs": [
        {
          "internalType": "uint256",
          "name": "",
          "type": "uint256"
        }
      ],
      "stateMutability": "view",
      "type": "function"
    },
    {
      "inputs": [
        {
          "internalType": "address",
          "name": "from",
          "type": "address"
        },
        {
          "internalType": "address",
          "name": "to",
          "type": "address"
        },
        {
          "internalType": "uint256",
          "name": "tokenId",
          "type": "uint256"
        }
      ],
      "name": "transferFrom",
      "outputs": [],
      "stateMutability": "nonpayable",
      "type": "function"
    },
    {
      "inputs": [
        {
          "internalType": "address",
          "name": "newOwner",
          "type": "address"
        }
      ],
      "name": "transferOwnership",
      "outputs": [],
      "stateMutability": "nonpayable",
      "type": "function"
    }
  ],
  "bytecode": "0x60806040526658d15e17628000600d556002600e553480156200002157600080fd5b50604080518082018252600c81526b10dc99585d1d5c995cd3919560a21b60208083019182528351808501909452600484526310d3919560e21b908401528151919291620000729160009162000106565b5080516200008890600190602084019062000106565b505050620000a56200009f620000b060201b60201c565b620000b4565b6001600c55620001e9565b3390565b600b80546001600160a01b038381166001600160a01b0319831681179093556040519116919082907f8be0079c531659141344cd1fd0a4f28419497f9722a3daafe3b4186f6b6457e090600090a35050565b8280546200011490620001ac565b90600052602060002090601f01602090048101928262000138576000855562000183565b82601f106200015357805160ff191683800117855562000183565b8280016001018555821562000183579182015b828111156200018357825182559160200191906001019062000166565b506200019192915062000195565b5090565b5b8082111562000191576000815560010162000196565b600181811c90821680620001c157607f821691505b60208210811415620001e357634e487b7160e01b600052602260045260246000fd5b50919050565b613c2d80620001f96000396000f3fe6080604052600436106101e35760003560e01c806370a0823111610102578063a22cb46511610095578063d7c0691911610064578063d7c0691914610552578063e985e9c514610574578063f2fde38b146105bd578063f737d21d146105dd57600080fd5b8063a22cb465146104df578063b88d4fde146104ff578063c046372c1461051f578063c87b56dd1461053257600080fd5b806375d1f140116100d157806375d1f140146104845780638da5cb5b1461049957806395d89b41146104b75780639979ef45146104cc57600080fd5b806370a082311461040d57806370cbcb431461042d578063715018a61461044f578063747547761461046457600080fd5b806323b872dd1161017a5780634f6ccce7116101495780634f6ccce71461038d5780634fa7b507146103ad57806351ed8288146103da5780636352211e146103ed57600080fd5b806323b872dd1461030d5780632f745c591461032d57806342842e0e1461034d57806343d32ae71461036d57600080fd5b8063095ea7b3116101b6578063095ea7b31461028e5780630fd76c7c146102ae57806318160ddd146102ce57806319047819146102ed57600080fd5b806301ffc9a7146101e857806306fdde031461021d578063081812fc1461023f57806308747bbc14610277575b600080fd5b3480156101f457600080fd5b5061020861020336600461341c565b6105fd565b60405190151581526020015b60405180910390f35b34801561022957600080fd5b5061023261060e565b6040516102149190613491565b34801561024b57600080fd5b5061025f61025a3660046134a4565b6106a0565b6040516001600160a01b039091168152602001610214565b34801561028357600080fd5b5061028c6106c7565b005b34801561029a57600080fd5b5061028c6102a93660046134d9565b610724565b3480156102ba57600080fd5b5061028c6102c9366004613503565b61083f565b3480156102da57600080fd5b506009545b604051908152602001610214565b3480156102f957600080fd5b5061028c610308366004613525565b610942565b34801561031957600080fd5b5061028c610328366004613560565b610bf7565b34801561033957600080fd5b506102df6103483660046134d9565b610c28565b34801561035957600080fd5b5061028c610368366004613560565b610c3b565b34801561037957600080fd5b50610208610388366004613648565b610c56565b34801561039957600080fd5b506102df6103a83660046134a4565b610c81565b3480156103b957600080fd5b506103cd6103c83660046134a4565b610d14565b604051610214919061367d565b61028c6103e83660046134a4565b610da9565b3480156103f957600080fd5b5061025f6104083660046134a4565b611139565b34801561041957600080fd5b506102df6104283660046136df565b611199565b34801561043957600080fd5b5061044261121f565b60405161021491906136fa565b34801561045b57600080fd5b5061028c611344565b34801561047057600080fd5b5061028c61047f3660046134a4565b611358565b34801561049057600080fd5b50610442611484565b3480156104a557600080fd5b50600b546001600160a01b031661025f565b3480156104c357600080fd5b506102326115c6565b61028c6104da3660046134a4565b6115d5565b3480156104eb57600080fd5b5061028c6104fa36600461375c565b611864565b34801561050b57600080fd5b5061028c61051a366004613798565b611873565b6102df61052d366004613814565b6118ab565b34801561053e57600080fd5b5061023261054d3660046134a4565b6119d3565b34801561055e57600080fd5b506105676119de565b6040516102149190613859565b34801561058057600080fd5b5061020861058f3660046138e9565b6001600160a01b03918216600090815260056020908152604080832093909416825291909152205460ff1690565b3480156105c957600080fd5b5061028c6105d83660046136df565b611b7d565b3480156105e957600080fd5b5061028c6105f83660046134a4565b611bf3565b60006106088261222b565b92915050565b60606000805461061d9061391c565b80601f01602080910402602001604051908101604052809291908181526020018280546106499061391c565b80156106965780601f1061066b57610100808354040283529160200191610696565b820191906000526020600020905b81548152906001019060200180831161067957829003601f168201915b5050505050905090565b60006106ab82612250565b506000908152600460205260409020546001600160a01b031690565b60015b60105481116107215760008181526015602052604090205460ff168015610701575060008181526014602052604090206006015442115b1561070f5761070f81611bf3565b806107198161396d565b9150506106ca565b50565b600061072f82611139565b9050806001600160a01b0316836001600160a01b031614156107a25760405162461bcd60e51b815260206004820152602160248201527f4552433732313a20617070726f76616c20746f2063757272656e74206f776e656044820152603960f91b60648201526084015b60405180910390fd5b336001600160a01b03821614806107be57506107be813361058f565b6108305760405162461bcd60e51b815260206004820152603d60248201527f4552433732313a20617070726f76652063616c6c6572206973206e6f7420746f60448201527f6b656e206f776e6572206f7220617070726f76656420666f7220616c6c0000006064820152608401610799565b61083a83836122a0565b505050565b6108488261230e565b6108645760405162461bcd60e51b815260040161079990613988565b3361086e83611139565b6001600160a01b0316146108c45760405162461bcd60e51b815260206004820152601a60248201527f4e6f7420746865206f776e6572206f662074686520746f6b656e0000000000006044820152606401610799565b600082815260136020526040902060020154600160a01b900460ff161561092d5760405162461bcd60e51b815260206004820152601860248201527f546f6b656e206973206c697374656420666f722073616c6500000000000000006044820152606401610799565b60009182526013602052604090912060010155565b3361094c86611139565b6001600160a01b0316146109985760405162461bcd60e51b8152602060048201526013602482015272556e617574686f72697a656420656e7469747960681b6044820152606401610799565b600085815260146020526040902060050154156109f75760405162461bcd60e51b815260206004820152601f60248201527f57696e6e65722073686f756c6420636c61696d207072697a65206669727374006044820152606401610799565b600085815260146020526040902060040154610100900460ff1615610a555760405162461bcd60e51b815260206004820152601460248201527341756374696f6e20616c7265616479206c69766560601b6044820152606401610799565b610a60306001611864565b6040516323b872dd60e01b8152336004820152306024820181905260448201879052906323b872dd90606401600060405180830381600087803b158015610aa657600080fd5b505af1158015610aba573d6000803e3d6000fd5b50505050604051806101000160405280868152602001336001600160a01b0316815260200160006001600160a01b031681526020016013600088815260200190815260200160002060010154815260200160001515815260200160011515815260200160008152602001610b308686868661232b565b905260008681526014602090815260408083208451815584830151600180830180546001600160a01b039384166001600160a01b031991821617909155878501516002850180549190941691161790915560608601516003830155608086015160048301805460a089015115156101000261ff00199315159390931661ffff199091161791909117905560c0860151600583015560e09095015160069091015560159091529020805460ff19169091179055610bf0601180546001019055565b5050505050565b610c01338261238f565b610c1d5760405162461bcd60e51b8152600401610799906139b6565b61083a83838361240d565b6000610c34838361257e565b9392505050565b61083a83838360405180602001604052806000815250611873565b6000601282604051610c689190613a03565b9081526040519081900360200190205460ff1692915050565b6000610c8c60095490565b8210610cef5760405162461bcd60e51b815260206004820152602c60248201527f455243373231456e756d657261626c653a20676c6f62616c20696e646578206f60448201526b7574206f6620626f756e647360a01b6064820152608401610799565b60098281548110610d0257610d02613a1f565b90600052602060002001549050919050565b606060166000838152602001908152602001600020805480602002602001604051908101604052809291908181526020016000905b82821015610d9e576000848152602090819020604080516060810182526003860290920180546001600160a01b0316835260018082015484860152600290910154918301919091529083529092019101610d49565b505050509050919050565b610db1612614565b610dba8161230e565b610dd65760405162461bcd60e51b815260040161079990613988565b33610de082611139565b6001600160a01b03161415610e375760405162461bcd60e51b815260206004820152601960248201527f43616e6e6f742062757920796f7572206f776e20746f6b656e000000000000006044820152606401610799565b60008181526013602052604090206002810154600160a01b900460ff16610ea05760405162461bcd60e51b815260206004820152601c60248201527f546f6b656e206973206e6f74206c697374656420666f722073616c65000000006044820152606401610799565b60006064600e548360010154610eb69190613a35565b610ec09190613a6a565b8260010154610ecf9190613a7e565b9050803414610f2b5760405162461bcd60e51b815260206004820152602260248201527f5072696365206d75737420626520657175616c20746f20746f74616c20707269604482015261636560f01b6064820152608401610799565b6000610f3684611139565b9050610f4381338661240d565b60018301546040516000916001600160a01b038416918381818185875af1925050503d8060008114610f91576040519150601f19603f3d011682016040523d82523d6000602084013e610f96565b606091505b5050905080610fe75760405162461bcd60e51b815260206004820152601e60248201527f4661696c656420746f2073656e6420457468657220746f2073656c6c657200006044820152606401610799565b60006064600e548660010154610ffd9190613a35565b6110079190613a6a565b9050600061101d600b546001600160a01b031690565b6001600160a01b03168260405160006040518083038185875af1925050503d8060008114611067576040519150601f19603f3d011682016040523d82523d6000602084013e61106c565b606091505b50509050806110bd5760405162461bcd60e51b815260206004820152601e60248201527f4661696c656420746f2073656e64206d61726b6574706c6163652066656500006044820152606401610799565b60028601805460ff60a01b191690556110d6600f61266e565b600186015460408051898152602081019290925281018390526001600160a01b0385169033907f5fafad85dec201c2e73b6a2bef6351129304a624ea8720ecd04cd7f04d83bc399060600160405180910390a35050505050506107216001600c55565b6000818152600260205260408120546001600160a01b0316806106085760405162461bcd60e51b8152602060048201526018602482015277115490cdcc8c4e881a5b9d985b1a59081d1bdad95b88125160421b6044820152606401610799565b60006001600160a01b0382166112035760405162461bcd60e51b815260206004820152602960248201527f4552433732313a2061646472657373207a65726f206973206e6f7420612076616044820152683634b21037bbb732b960b91b6064820152608401610799565b506001600160a01b031660009081526003602052604090205490565b6060600061122c33611199565b905060008167ffffffffffffffff8111156112495761124961359c565b60405190808252806020026020018201604052801561129b57816020015b6040805160808101825260008082526020808301829052928201819052606082015282526000199092019101816112675790505b50905060005b8281101561133d5760006112b53383610c28565b600081815260136020908152604091829020825160808101845281548152600182015492810192909252600201546001600160a01b03811692820192909252600160a01b90910460ff161515606082015284519192509084908490811061131e5761131e613a1f565b60200260200101819052505080806113359061396d565b9150506112a1565b5092915050565b61134c6126c5565b611356600061271f565b565b6113618161230e565b61137d5760405162461bcd60e51b815260040161079990613988565b3361138782611139565b6001600160a01b0316146113dd5760405162461bcd60e51b815260206004820152601a60248201527f4e6f7420746865206f776e6572206f662074686520746f6b656e0000000000006044820152606401610799565b600081815260136020526040902060028101805460ff600160a01b808304821615810260ff60a01b1990931692909217928390559104161561142c57611427600f80546001019055565b611436565b611436600f61266e565b600281015460408051848152600160a01b90920460ff16151560208301527f03ef70a0e4102c463026ac72316ae396a5ee1a5cbf7a115e522fc8eda3a152de91015b60405180910390a15050565b60606000611491600f5490565b67ffffffffffffffff8111156114a9576114a961359c565b6040519080825280602002602001820160405280156114fb57816020015b6040805160808101825260008082526020808301829052928201819052606082015282526000199092019101816114c75790505b509050600060015b60105481116115be57600081815260136020526040902060020154600160a01b900460ff16156115ac57600081815260136020908152604091829020825160808101845281548152600182015492810192909252600201546001600160a01b03811692820192909252600160a01b90910460ff1615156060820152835184908490811061159257611592613a1f565b602002602001018190525081806115a89061396d565b9250505b806115b68161396d565b915050611503565b509092915050565b60606001805461061d9061391c565b60008181526014602052604090206003015434101561162c5760405162461bcd60e51b8152602060048201526013602482015272125b9cdd59999a58da595b9d08105b5bdd5b9d606a1b6044820152606401610799565b61163a60008060008061232b565b600082815260146020526040902060060154116116915760405162461bcd60e51b815260206004820152601560248201527441756374696f6e206e6f7420617661696c61626c6560581b6044820152606401610799565b6000818152601460205260409020600101546001600160a01b03163314156116ee5760405162461bcd60e51b815260206004820152601060248201526f14d95b1b195c8818d85b89dd08189a5960821b6044820152606401610799565b600081815260176020908152604080832033845290915290205460ff16156117585760405162461bcd60e51b815260206004820152601d60248201527f596f75206861766520616c726561647920706c616365642061206269640000006044820152606401610799565b611785604051806060016040528060006001600160a01b0316815260200160008152602001600081525090565b33815234602082015261179b600080808061232b565b6040828101918252600084815260166020908152828220805460018082018355918452828420875160039092020180546001600160a01b0319166001600160a01b0390921691909117815582870151918101919091559351600290940193909355848152601490925281206005018054916118158361396d565b909155505050600090815260146020908152604080832034600382015560020180546001600160a01b03191633908117909155601783528184209084529091529020805460ff19166001179055565b61186f338383612771565b5050565b61187d338361238f565b6118995760405162461bcd60e51b8152600401610799906139b6565b6118a584848484612840565b50505050565b60006118b683610c56565b156119035760405162461bcd60e51b815260206004820152601860248201527f546f6b656e2055524920616c72656164792065786973747300000000000000006044820152606401610799565b600d5434146119605760405162461bcd60e51b8152602060048201526024808201527f5072696365206d75737420626520657175616c20746f206c697374696e6720706044820152637269636560e01b6064820152608401610799565b61196e601080546001019055565b600061197960105490565b90506119853382612873565b61198f818561288d565b6119998184612949565b60016012856040516119ab9190613a03565b908152604051908190036020019020805491151560ff19909216919091179055905092915050565b606061060882612a47565b606060006119eb60115490565b67ffffffffffffffff811115611a0357611a0361359c565b604051908082528060200260200182016040528015611a7257816020015b604080516101008101825260008082526020808301829052928201819052606082018190526080820181905260a0820181905260c0820181905260e08201528252600019909201910181611a215790505b509050600060015b60105481116115be5760008181526015602052604090205460ff168015611ab75750600081815260146020526040902060040154610100900460ff165b15611b6b57600081815260146020908152604091829020825161010080820185528254825260018301546001600160a01b039081169483019490945260028301549093169381019390935260038101546060840152600481015460ff80821615156080860152929004909116151560a0830152600581015460c08301526006015460e08201528351849084908110611b5157611b51613a1f565b60200260200101819052508180611b679061396d565b9250505b80611b758161396d565b915050611a7a565b611b856126c5565b6001600160a01b038116611bea5760405162461bcd60e51b815260206004820152602660248201527f4f776e61626c653a206e6577206f776e657220697320746865207a65726f206160448201526564647265737360d01b6064820152608401610799565b6107218161271f565b6000818152601460205260409020600101546001600160a01b0316331480611c34575033611c29600b546001600160a01b031690565b6001600160a01b0316145b611c765760405162461bcd60e51b8152602060048201526013602482015272556e617574686f72697a656420656e7469747960681b6044820152606401610799565b600081815260146020526040902060050154611d0b57600081815260146020526040908190206001015490516323b872dd60e01b815230600482018190526001600160a01b039092166024820152604481018390526323b872dd90606401600060405180830381600087803b158015611cee57600080fd5b505af1158015611d02573d6000803e3d6000fd5b5050505061204f565b600081815260166020908152604080832054815144818501524281840152606080820183905283518083039091018152608090910190925281519190920120611d549190613a96565b60008381526016602052604081208054929350909183908110611d7957611d79613a1f565b60009182526020918290206040805160608101825260039390930290910180546001600160a01b03168084526001820154948401949094526002015482820152516323b872dd60e01b815230600482018190526024820193909352604481018690529092506323b872dd90606401600060405180830381600087803b158015611e0157600080fd5b505af1158015611e15573d6000803e3d6000fd5b5050505060006064600e548360200151611e2f9190613a35565b611e399190613a6a565b90506000611e4f600b546001600160a01b031690565b6001600160a01b03168260405160006040518083038185875af1925050503d8060008114611e99576040519150601f19603f3d011682016040523d82523d6000602084013e611e9e565b606091505b5050905080611eef5760405162461bcd60e51b815260206004820152601e60248201527f4661696c656420746f2073656e64206d61726b6574706c6163652066656500006044820152606401610799565b6000828460200151611f019190613aaa565b60008781526014602052604080822060010154905192935090916001600160a01b039091169083908381818185875af1925050503d8060008114611f61576040519150601f19603f3d011682016040523d82523d6000602084013e611f66565b606091505b5050905080611fb75760405162461bcd60e51b815260206004820152601e60248201527f4661696c656420746f2073656e6420457468657220746f2073656c6c657200006044820152606401610799565b600087815260146020908152604091829020600481018054600160ff19909116811790915588516002830180546001600160a01b0319166001600160a01b0392831690811790915591909201548984015185518d815294850152938301889052921691907f5fafad85dec201c2e73b6a2bef6351129304a624ea8720ecd04cd7f04d83bc399060600160405180910390a35050505050505b6000818152601560209081526040808320805460ff19169055601690915281205467ffffffffffffffff8111156120885761208861359c565b6040519080825280602002602001820160405280156120b1578160200160208202803683370190505b50905060005b6000838152601660205260409020548110156121485760008381526016602052604090208054829081106120ed576120ed613a1f565b600091825260209091206003909102015482516001600160a01b039091169083908390811061211e5761211e613a1f565b6001600160a01b0390921660209283029190910190910152806121408161396d565b9150506120b7565b5060008281526016602052604081206121609161331f565b60005b81518110156121d05760176000848152602001908152602001600020600083838151811061219357612193613a1f565b6020908102919091018101516001600160a01b03168252810191909152604001600020805460ff19169055806121c88161396d565b915050612163565b5060008281526014602052604081208181556001810180546001600160a01b031990811690915560028201805490911690556003810182905560048101805461ffff19169055600581018290556006015561186f601161266e565b60006001600160e01b0319821663780e9d6360e01b1480610608575061060882612b50565b6122598161230e565b6107215760405162461bcd60e51b8152602060048201526018602482015277115490cdcc8c4e881a5b9d985b1a59081d1bdad95b88125160421b6044820152606401610799565b600081815260046020526040902080546001600160a01b0319166001600160a01b03841690811790915581906122d582611139565b6001600160a01b03167f8c5be1e5ebec7d5bd14f71427d1e84f3dd0314c0f7b2291e5b200ac8c7c3b92560405160405180910390a45050565b6000908152600260205260409020546001600160a01b0316151590565b600061233a8262015180613a35565b61234684610e10613a35565b61235186603c613a35565b61235c886001613a35565b6123669042613a7e565b6123709190613a7e565b61237a9190613a7e565b6123849190613a7e565b90505b949350505050565b60008061239b83611139565b9050806001600160a01b0316846001600160a01b031614806123e257506001600160a01b0380821660009081526005602090815260408083209388168352929052205460ff165b806123875750836001600160a01b03166123fb846106a0565b6001600160a01b031614949350505050565b826001600160a01b031661242082611139565b6001600160a01b0316146124465760405162461bcd60e51b815260040161079990613ac1565b6001600160a01b0382166124a85760405162461bcd60e51b8152602060048201526024808201527f4552433732313a207472616e7366657220746f20746865207a65726f206164646044820152637265737360e01b6064820152608401610799565b6124b58383836001612b75565b826001600160a01b03166124c882611139565b6001600160a01b0316146124ee5760405162461bcd60e51b815260040161079990613ac1565b600081815260046020908152604080832080546001600160a01b03199081169091556001600160a01b0387811680865260038552838620805460001901905590871680865283862080546001019055868652600290945282852080549092168417909155905184937fddf252ad1be2c89b69c2b068fc378daa952ba7f163c4a11628f55a4df523b3ef91a4505050565b600061258983611199565b82106125eb5760405162461bcd60e51b815260206004820152602b60248201527f455243373231456e756d657261626c653a206f776e657220696e646578206f7560448201526a74206f6620626f756e647360a81b6064820152608401610799565b506001600160a01b03919091166000908152600760209081526040808320938352929052205490565b6002600c5414156126675760405162461bcd60e51b815260206004820152601f60248201527f5265656e7472616e637947756172643a207265656e7472616e742063616c6c006044820152606401610799565b6002600c55565b8054806126bd5760405162461bcd60e51b815260206004820152601b60248201527f436f756e7465723a2064656372656d656e74206f766572666c6f7700000000006044820152606401610799565b600019019055565b600b546001600160a01b031633146113565760405162461bcd60e51b815260206004820181905260248201527f4f776e61626c653a2063616c6c6572206973206e6f7420746865206f776e65726044820152606401610799565b600b80546001600160a01b038381166001600160a01b0319831681179093556040519116919082907f8be0079c531659141344cd1fd0a4f28419497f9722a3daafe3b4186f6b6457e090600090a35050565b816001600160a01b0316836001600160a01b031614156127d35760405162461bcd60e51b815260206004820152601960248201527f4552433732313a20617070726f766520746f2063616c6c6572000000000000006044820152606401610799565b6001600160a01b03838116600081815260056020908152604080832094871680845294825291829020805460ff191686151590811790915591519182527f17307eab39ab6107e8899845ad3d59bd9653f200f220920489ca2b5937696c31910160405180910390a3505050565b61284b84848461240d565b61285784848484612b81565b6118a55760405162461bcd60e51b815260040161079990613b06565b61186f828260405180602001604052806000815250612c7c565b6128968261230e565b6128f95760405162461bcd60e51b815260206004820152602e60248201527f45524337323155524953746f726167653a2055524920736574206f66206e6f6e60448201526d32bc34b9ba32b73a103a37b5b2b760911b6064820152608401610799565b6000828152600660209081526040909120825161291892840190613340565b506040518281527ff8e1a15aba9398e019f0b49df1a4fde98ee17ae345cb5f6b5e2c27f5033e8ce790602001611478565b600081116129995760405162461bcd60e51b815260206004820152601c60248201527f5072696365206d757374206265206174206c65617374203120776569000000006044820152606401610799565b60408051608081018252838152602080820184815233838501818152600060608087018281528a835260138752888320975188559451600188015591516002909601805494511515600160a01b026001600160a81b03199095166001600160a01b0390971696909617939093179094558451878152928301869052938201527f470031062672bc0246e132c723a729c4676710ec663a29e86c88678032daddea910160405180910390a25050565b6060612a5282612250565b60008281526006602052604081208054612a6b9061391c565b80601f0160208091040260200160405190810160405280929190818152602001828054612a979061391c565b8015612ae45780601f10612ab957610100808354040283529160200191612ae4565b820191906000526020600020905b815481529060010190602001808311612ac757829003601f168201915b505050505090506000612b0260408051602081019091526000815290565b9050805160001415612b15575092915050565b815115612b47578082604051602001612b2f929190613b58565b60405160208183030381529060405292505050919050565b61238784612caf565b60006001600160e01b03198216632483248360e11b1480610608575061060882612d22565b6118a584848484612d72565b60006001600160a01b0384163b15612c7457604051630a85bd0160e11b81526001600160a01b0385169063150b7a0290612bc5903390899088908890600401613b87565b6020604051808303816000875af1925050508015612c00575060408051601f3d908101601f19168201909252612bfd91810190613bc4565b60015b612c5a573d808015612c2e576040519150601f19603f3d011682016040523d82523d6000602084013e612c33565b606091505b508051612c525760405162461bcd60e51b815260040161079990613b06565b805181602001fd5b6001600160e01b031916630a85bd0160e11b149050612387565b506001612387565b612c868383612e9f565b612c936000848484612b81565b61083a5760405162461bcd60e51b815260040161079990613b06565b6060612cba82612250565b6000612cd160408051602081019091526000815290565b90506000815111612cf15760405180602001604052806000815250610c34565b80612cfb8461301a565b604051602001612d0c929190613b58565b6040516020818303038152906040529392505050565b60006001600160e01b031982166380ac58cd60e01b1480612d5357506001600160e01b03198216635b5e139f60e01b145b8061060857506301ffc9a760e01b6001600160e01b0319831614610608565b6001811115612de15760405162461bcd60e51b815260206004820152603560248201527f455243373231456e756d657261626c653a20636f6e7365637574697665207472604482015274185b9cd9995c9cc81b9bdd081cdd5c1c1bdc9d1959605a1b6064820152608401610799565b816001600160a01b038516612e3d57612e3881600980546000838152600a60205260408120829055600182018355919091527f6e1540171b6c0c960b71a7020d9f60077f6af931a8bbf590da0223dacf75c7af0155565b612e60565b836001600160a01b0316856001600160a01b031614612e6057612e6085826130b7565b6001600160a01b038416612e7c57612e7781613154565b610bf0565b846001600160a01b0316846001600160a01b031614610bf057610bf08482613203565b6001600160a01b038216612ef55760405162461bcd60e51b815260206004820181905260248201527f4552433732313a206d696e7420746f20746865207a65726f20616464726573736044820152606401610799565b612efe8161230e565b15612f4b5760405162461bcd60e51b815260206004820152601c60248201527f4552433732313a20746f6b656e20616c7265616479206d696e746564000000006044820152606401610799565b612f59600083836001612b75565b612f628161230e565b15612faf5760405162461bcd60e51b815260206004820152601c60248201527f4552433732313a20746f6b656e20616c7265616479206d696e746564000000006044820152606401610799565b6001600160a01b038216600081815260036020908152604080832080546001019055848352600290915280822080546001600160a01b0319168417905551839291907fddf252ad1be2c89b69c2b068fc378daa952ba7f163c4a11628f55a4df523b3ef908290a45050565b6060600061302783613247565b600101905060008167ffffffffffffffff8111156130475761304761359c565b6040519080825280601f01601f191660200182016040528015613071576020820181803683370190505b5090508181016020015b600019016f181899199a1a9b1b9c1cb0b131b232b360811b600a86061a8153600a85049450846130aa576130af565b61307b565b509392505050565b600060016130c484611199565b6130ce9190613aaa565b600083815260086020526040902054909150808214613121576001600160a01b03841660009081526007602090815260408083208584528252808320548484528184208190558352600890915290208190555b5060009182526008602090815260408084208490556001600160a01b039094168352600781528383209183525290812055565b60095460009061316690600190613aaa565b6000838152600a60205260408120546009805493945090928490811061318e5761318e613a1f565b9060005260206000200154905080600983815481106131af576131af613a1f565b6000918252602080832090910192909255828152600a909152604080822084905585825281205560098054806131e7576131e7613be1565b6001900381819060005260206000200160009055905550505050565b600061320e83611199565b6001600160a01b039093166000908152600760209081526040808320868452825280832085905593825260089052919091209190915550565b60008072184f03e93ff9f4daa797ed6e38ed64bf6a1f0160401b83106132865772184f03e93ff9f4daa797ed6e38ed64bf6a1f0160401b830492506040015b6d04ee2d6d415b85acef810000000083106132b2576d04ee2d6d415b85acef8100000000830492506020015b662386f26fc1000083106132d057662386f26fc10000830492506010015b6305f5e10083106132e8576305f5e100830492506008015b61271083106132fc57612710830492506004015b6064831061330e576064830492506002015b600a83106106085760010192915050565b508054600082556003029060005260206000209081019061072191906133c4565b82805461334c9061391c565b90600052602060002090601f01602090048101928261336e57600085556133b4565b82601f1061338757805160ff19168380011785556133b4565b828001600101855582156133b4579182015b828111156133b4578251825591602001919060010190613399565b506133c09291506133f1565b5090565b5b808211156133c05780546001600160a01b031916815560006001820181905560028201556003016133c5565b5b808211156133c057600081556001016133f2565b6001600160e01b03198116811461072157600080fd5b60006020828403121561342e57600080fd5b8135610c3481613406565b60005b8381101561345457818101518382015260200161343c565b838111156118a55750506000910152565b6000815180845261347d816020860160208601613439565b601f01601f19169290920160200192915050565b602081526000610c346020830184613465565b6000602082840312156134b657600080fd5b5035919050565b80356001600160a01b03811681146134d457600080fd5b919050565b600080604083850312156134ec57600080fd5b6134f5836134bd565b946020939093013593505050565b6000806040838503121561351657600080fd5b50508035926020909101359150565b600080600080600060a0868803121561353d57600080fd5b505083359560208501359550604085013594606081013594506080013592509050565b60008060006060848603121561357557600080fd5b61357e846134bd565b925061358c602085016134bd565b9150604084013590509250925092565b634e487b7160e01b600052604160045260246000fd5b600067ffffffffffffffff808411156135cd576135cd61359c565b604051601f8501601f19908116603f011681019082821181831017156135f5576135f561359c565b8160405280935085815286868601111561360e57600080fd5b858560208301376000602087830101525050509392505050565b600082601f83011261363957600080fd5b610c34838335602085016135b2565b60006020828403121561365a57600080fd5b813567ffffffffffffffff81111561367157600080fd5b61238784828501613628565b602080825282518282018190526000919060409081850190868401855b828110156136d257815180516001600160a01b031685528681015187860152850151858501526060909301929085019060010161369a565b5091979650505050505050565b6000602082840312156136f157600080fd5b610c34826134bd565b602080825282518282018190526000919060409081850190868401855b828110156136d2578151805185528681015187860152858101516001600160a01b03168686015260609081015115159085015260809093019290850190600101613717565b6000806040838503121561376f57600080fd5b613778836134bd565b91506020830135801515811461378d57600080fd5b809150509250929050565b600080600080608085870312156137ae57600080fd5b6137b7856134bd565b93506137c5602086016134bd565b925060408501359150606085013567ffffffffffffffff8111156137e857600080fd5b8501601f810187136137f957600080fd5b613808878235602084016135b2565b91505092959194509250565b6000806040838503121561382757600080fd5b823567ffffffffffffffff81111561383e57600080fd5b61384a85828601613628565b95602094909401359450505050565b602080825282518282018190526000919060409081850190868401855b828110156136d257815180518552868101516001600160a01b03908116888701528682015116868601526060808201519086015260808082015115159086015260a08082015115159086015260c0808201519086015260e090810151908501526101009093019290850190600101613876565b600080604083850312156138fc57600080fd5b613905836134bd565b9150613913602084016134bd565b90509250929050565b600181811c9082168061393057607f821691505b6020821081141561395157634e487b7160e01b600052602260045260246000fd5b50919050565b634e487b7160e01b600052601160045260246000fd5b600060001982141561398157613981613957565b5060010190565b602080825260149082015273151bdad95b88191bd95cc81b9bdd08195e1a5cdd60621b604082015260600190565b6020808252602d908201527f4552433732313a2063616c6c6572206973206e6f7420746f6b656e206f776e6560408201526c1c881bdc88185c1c1c9bdd9959609a1b606082015260800190565b60008251613a15818460208701613439565b9190910192915050565b634e487b7160e01b600052603260045260246000fd5b6000816000190483118215151615613a4f57613a4f613957565b500290565b634e487b7160e01b600052601260045260246000fd5b600082613a7957613a79613a54565b500490565b60008219821115613a9157613a91613957565b500190565b600082613aa557613aa5613a54565b500690565b600082821015613abc57613abc613957565b500390565b60208082526025908201527f4552433732313a207472616e736665722066726f6d20696e636f72726563742060408201526437bbb732b960d91b606082015260800190565b60208082526032908201527f4552433732313a207472616e7366657220746f206e6f6e20455243373231526560408201527131b2b4bb32b91034b6b83632b6b2b73a32b960711b606082015260800190565b60008351613b6a818460208801613439565b835190830190613b7e818360208801613439565b01949350505050565b6001600160a01b0385811682528416602082015260408101839052608060608201819052600090613bba90830184613465565b9695505050505050565b600060208284031215613bd657600080fd5b8151610c3481613406565b634e487b7160e01b600052603160045260246000fdfea2646970667358221220167d3778a2d2e321569aaf86753a8e32d5b93b7f8b242ef79138b7a93c9cea4264736f6c634300080b0033",
  "linkReferences": {},
  "deployedLinkReferences": {}
}