{
  "_format": "hh-sol-artifact-1",
  "contractName": "NFTMarketplace",
  "sourceName": "contracts/NFTMarketplace.sol",
  "abi": [
    {
      "inputs": [],
      "stateMutability": "nonpayable",
      "type": "constructor"
    },
    {
      "anonymous": false,
      "inputs": [
        {
          "indexed": true,
          "internalType": "address",
          "name": "owner",
          "type": "address"
        },
        {
          "indexed": true,
          "internalType": "address",
          "name": "approved",
          "type": "address"
        },
        {
          "indexed": true,
          "internalType": "uint256",
          "name": "tokenId",
          "type": "uint256"
        }
      ],
      "name": "Approval",
      "type": "event"
    },
    {
      "anonymous": false,
      "inputs": [
        {
          "indexed": true,
          "internalType": "address",
          "name": "owner",
          "type": "address"
        },
        {
          "indexed": true,
          "internalType": "address",
          "name": "operator",
          "type": "address"
        },
        {
          "indexed": false,
          "internalType": "bool",
          "name": "approved",
          "type": "bool"
        }
      ],
      "name": "ApprovalForAll",
      "type": "event"
    },
    {
      "anonymous": false,
      "inputs": [
        {
          "indexed": true,
          "internalType": "uint256",
          "name": "tokenId",
          "type": "uint256"
        },
        {
          "indexed": false,
          "internalType": "address",
          "name": "seller",
          "type": "address"
        },
        {
          "indexed": false,
          "internalType": "uint256",
          "name": "price",
          "type": "uint256"
        },
        {
          "indexed": false,
          "internalType": "bool",
          "name": "sold",
          "type": "bool"
        }
      ],
      "name": "AuctionItemCreated",
      "type": "event"
    },
    {
      "anonymous": false,
      "inputs": [
        {
          "indexed": false,
          "internalType": "uint256",
          "name": "tokenId",
          "type": "uint256"
        },
        {
          "indexed": false,
          "internalType": "address",
          "name": "winner",
          "type": "address"
        },
        {
          "indexed": false,
          "internalType": "uint256",
          "name": "price",
          "type": "uint256"
        }
      ],
      "name": "AuctionWinnerPicked",
      "type": "event"
    },
    {
      "anonymous": false,
      "inputs": [
        {
          "indexed": false,
          "internalType": "uint256",
          "name": "_fromTokenId",
          "type": "uint256"
        },
        {
          "indexed": false,
          "internalType": "uint256",
          "name": "_toTokenId",
          "type": "uint256"
        }
      ],
      "name": "BatchMetadataUpdate",
      "type": "event"
    },
    {
      "anonymous": false,
      "inputs": [
        {
          "indexed": false,
          "internalType": "uint256",
          "name": "_tokenId",
          "type": "uint256"
        }
      ],
      "name": "MetadataUpdate",
      "type": "event"
    },
    {
      "anonymous": false,
      "inputs": [
        {
          "indexed": false,
          "internalType": "uint256",
          "name": "tokenId",
          "type": "uint256"
        },
        {
          "indexed": false,
          "internalType": "bool",
          "name": "isListed",
          "type": "bool"
        }
      ],
      "name": "NFTListed",
      "type": "event"
    },
    {
      "anonymous": false,
      "inputs": [
        {
          "indexed": false,
          "internalType": "uint256",
          "name": "tokenId",
          "type": "uint256"
        },
        {
          "indexed": true,
          "internalType": "address",
          "name": "buyer",
          "type": "address"
        },
        {
          "indexed": true,
          "internalType": "address",
          "name": "seller",
          "type": "address"
        },
        {
          "indexed": false,
          "internalType": "uint256",
          "name": "price",
          "type": "uint256"
        },
        {
          "indexed": false,
          "internalType": "uint256",
          "name": "fee",
          "type": "uint256"
        }
      ],
      "name": "NFTSold",
      "type": "event"
    },
    {
      "anonymous": false,
      "inputs": [
        {
          "indexed": false,
          "internalType": "uint256",
          "name": "tokenId",
          "type": "uint256"
        },
        {
          "indexed": false,
          "internalType": "uint256",
          "name": "price",
          "type": "uint256"
        },
        {
          "indexed": true,
          "internalType": "address",
          "name": "creator",
          "type": "address"
        },
        {
          "indexed": false,
          "internalType": "bool",
          "name": "isListed",
          "type": "bool"
        }
      ],
      "name": "NftItemCreated",
      "type": "event"
    },
    {
      "anonymous": false,
      "inputs": [
        {
          "indexed": true,
          "internalType": "address",
          "name": "previousOwner",
          "type": "address"
        },
        {
          "indexed": true,
          "internalType": "address",
          "name": "newOwner",
          "type": "address"
        }
      ],
      "name": "OwnershipTransferred",
      "type": "event"
    },
    {
      "anonymous": false,
      "inputs": [
        {
          "indexed": true,
          "internalType": "address",
          "name": "from",
          "type": "address"
        },
        {
          "indexed": true,
          "internalType": "address",
          "name": "to",
          "type": "address"
        },
        {
          "indexed": true,
          "internalType": "uint256",
          "name": "tokenId",
          "type": "uint256"
        }
      ],
      "name": "Transfer",
      "type": "event"
    },
    {
      "inputs": [
        {
          "internalType": "address",
          "name": "to",
          "type": "address"
        },
        {
          "internalType": "uint256",
          "name": "tokenId",
          "type": "uint256"
        }
      ],
      "name": "approve",
      "outputs": [],
      "stateMutability": "nonpayable",
      "type": "function"
    },
    {
      "inputs": [
        {
          "internalType": "address",
          "name": "owner",
          "type": "address"
        }
      ],
      "name": "balanceOf",
      "outputs": [
        {
          "internalType": "uint256",
          "name": "",
          "type": "uint256"
        }
      ],
      "stateMutability": "view",
      "type": "function"
    },
    {
      "inputs": [
        {
          "internalType": "uint256",
          "name": "tokenId",
          "type": "uint256"
        }
      ],
      "name": "buyNFT",
      "outputs": [],
      "stateMutability": "payable",
      "type": "function"
    },
    {
      "inputs": [
        {
          "internalType": "uint256",
          "name": "tokenId",
          "type": "uint256"
        },
        {
          "internalType": "uint256",
          "name": "price",
          "type": "uint256"
        }
      ],
      "name": "changeNFTPrice",
      "outputs": [],
      "stateMutability": "nonpayable",
      "type": "function"
    },
    {
      "inputs": [],
      "name": "closeAuctionsFromCronjob",
      "outputs": [],
      "stateMutability": "nonpayable",
      "type": "function"
    },
    {
      "inputs": [
        {
          "internalType": "uint256",
          "name": "tokenId",
          "type": "uint256"
        }
      ],
      "name": "getApproved",
      "outputs": [
        {
          "internalType": "address",
          "name": "",
          "type": "address"
        }
      ],
      "stateMutability": "view",
      "type": "function"
    },
    {
      "inputs": [],
      "name": "getAuctions",
      "outputs": [
        {
          "components": [
            {
              "internalType": "uint256",
              "name": "tokenId",
              "type": "uint256"
            },
            {
              "internalType": "address",
              "name": "seller",
              "type": "address"
            },
            {
              "internalType": "address",
              "name": "winner",
              "type": "address"
            },
            {
              "internalType": "uint256",
              "name": "price",
              "type": "uint256"
            },
            {
              "internalType": "bool",
              "name": "sold",
              "type": "bool"
            },
            {
              "internalType": "bool",
              "name": "live",
              "type": "bool"
            },
            {
              "internalType": "uint256",
              "name": "bids",
              "type": "uint256"
            },
            {
              "internalType": "uint256",
              "name": "duration",
              "type": "uint256"
            }
          ],
          "internalType": "struct NFTMarketplace.AuctionStruct[]",
          "name": "",
          "type": "tuple[]"
        }
      ],
      "stateMutability": "view",
      "type": "function"
    },
    {
      "inputs": [
        {
          "internalType": "uint256",
          "name": "tokenId",
          "type": "uint256"
        }
      ],
      "name": "getBidders",
      "outputs": [
        {
          "components": [
            {
              "internalType": "address",
              "name": "bidder",
              "type": "address"
            },
            {
              "internalType": "uint256",
              "name": "price",
              "type": "uint256"
            },
            {
              "internalType": "uint256",
              "name": "timestamp",
              "type": "uint256"
            }
          ],
          "internalType": "struct NFTMarketplace.BidderStruct[]",
          "name": "",
          "type": "tuple[]"
        }
      ],
      "stateMutability": "view",
      "type": "function"
    },
    {
      "inputs": [],
      "name": "getNftsOnSale",
      "outputs": [
        {
          "components": [
            {
              "internalType": "uint256",
              "name": "tokenId",
              "type": "uint256"
            },
            {
              "internalType": "uint256",
              "name": "price",
              "type": "uint256"
            },
            {
              "internalType": "address",
              "name": "creator",
              "type": "address"
            },
            {
              "internalType": "bool",
              "name": "isListed",
              "type": "bool"
            }
          ],
          "internalType": "struct NFTMarketplace.NftItem[]",
          "name": "",
          "type": "tuple[]"
        }
      ],
      "stateMutability": "view",
      "type": "function"
    },
    {
      "inputs": [],
      "name": "getOwnedNfts",
      "outputs": [
        {
          "components": [
            {
              "internalType": "uint256",
              "name": "tokenId",
              "type": "uint256"
            },
            {
              "internalType": "uint256",
              "name": "price",
              "type": "uint256"
            },
            {
              "internalType": "address",
              "name": "creator",
              "type": "address"
            },
            {
              "internalType": "bool",
              "name": "isListed",
              "type": "bool"
            }
          ],
          "internalType": "struct NFTMarketplace.NftItem[]",
          "name": "",
          "type": "tuple[]"
        }
      ],
      "stateMutability": "view",
      "type": "function"
    },
    {
      "inputs": [
        {
          "internalType": "address",
          "name": "owner",
          "type": "address"
        },
        {
          "internalType": "address",
          "name": "operator",
          "type": "address"
        }
      ],
      "name": "isApprovedForAll",
      "outputs": [
        {
          "internalType": "bool",
          "name": "",
          "type": "bool"
        }
      ],
      "stateMutability": "view",
      "type": "function"
    },
    {
      "inputs": [
        {
          "internalType": "string",
          "name": "newTokenURI",
          "type": "string"
        },
        {
          "internalType": "uint256",
          "name": "price",
          "type": "uint256"
        }
      ],
      "name": "mintToken",
      "outputs": [
        {
          "internalType": "uint256",
          "name": "",
          "type": "uint256"
        }
      ],
      "stateMutability": "payable",
      "type": "function"
    },
    {
      "inputs": [],
      "name": "name",
      "outputs": [
        {
          "internalType": "string",
          "name": "",
          "type": "string"
        }
      ],
      "stateMutability": "view",
      "type": "function"
    },
    {
      "inputs": [
        {
          "internalType": "uint256",
          "name": "tokenId",
          "type": "uint256"
        },
        {
          "internalType": "uint256",
          "name": "sec",
          "type": "uint256"
        },
        {
          "internalType": "uint256",
          "name": "min",
          "type": "uint256"
        },
        {
          "internalType": "uint256",
          "name": "hour",
          "type": "uint256"
        },
        {
          "internalType": "uint256",
          "name": "day",
          "type": "uint256"
        }
      ],
      "name": "offerAuction",
      "outputs": [],
      "stateMutability": "nonpayable",
      "type": "function"
    },
    {
      "inputs": [],
      "name": "owner",
      "outputs": [
        {
          "internalType": "address",
          "name": "",
          "type": "address"
        }
      ],
      "stateMutability": "view",
      "type": "function"
    },
    {
      "inputs": [
        {
          "internalType": "uint256",
          "name": "tokenId",
          "type": "uint256"
        }
      ],
      "name": "ownerOf",
      "outputs": [
        {
          "internalType": "address",
          "name": "",
          "type": "address"
        }
      ],
      "stateMutability": "view",
      "type": "function"
    },
    {
      "inputs": [
        {
          "internalType": "uint256",
          "name": "tokenId",
          "type": "uint256"
        }
      ],
      "name": "pickWinner",
      "outputs": [],
      "stateMutability": "nonpayable",
      "type": "function"
    },
    {
      "inputs": [
        {
          "internalType": "uint256",
          "name": "tokenId",
          "type": "uint256"
        }
      ],
      "name": "placeBid",
      "outputs": [],
      "stateMutability": "payable",
      "type": "function"
    },
    {
      "inputs": [],
      "name": "renounceOwnership",
      "outputs": [],
      "stateMutability": "nonpayable",
      "type": "function"
    },
    {
      "inputs": [
        {
          "internalType": "address",
          "name": "from",
          "type": "address"
        },
        {
          "internalType": "address",
          "name": "to",
          "type": "address"
        },
        {
          "internalType": "uint256",
          "name": "tokenId",
          "type": "uint256"
        }
      ],
      "name": "safeTransferFrom",
      "outputs": [],
      "stateMutability": "nonpayable",
      "type": "function"
    },
    {
      "inputs": [
        {
          "internalType": "address",
          "name": "from",
          "type": "address"
        },
        {
          "internalType": "address",
          "name": "to",
          "type": "address"
        },
        {
          "internalType": "uint256",
          "name": "tokenId",
          "type": "uint256"
        },
        {
          "internalType": "bytes",
          "name": "data",
          "type": "bytes"
        }
      ],
      "name": "safeTransferFrom",
      "outputs": [],
      "stateMutability": "nonpayable",
      "type": "function"
    },
    {
      "inputs": [
        {
          "internalType": "address",
          "name": "operator",
          "type": "address"
        },
        {
          "internalType": "bool",
          "name": "approved",
          "type": "bool"
        }
      ],
      "name": "setApprovalForAll",
      "outputs": [],
      "stateMutability": "nonpayable",
      "type": "function"
    },
    {
      "inputs": [
        {
          "internalType": "bytes4",
          "name": "interfaceId",
          "type": "bytes4"
        }
      ],
      "name": "supportsInterface",
      "outputs": [
        {
          "internalType": "bool",
          "name": "",
          "type": "bool"
        }
      ],
      "stateMutability": "view",
      "type": "function"
    },
    {
      "inputs": [],
      "name": "symbol",
      "outputs": [
        {
          "internalType": "string",
          "name": "",
          "type": "string"
        }
      ],
      "stateMutability": "view",
      "type": "function"
    },
    {
      "inputs": [
        {
          "internalType": "uint256",
          "name": "tokenId",
          "type": "uint256"
        }
      ],
      "name": "toggleNFTListing",
      "outputs": [],
      "stateMutability": "nonpayable",
      "type": "function"
    },
    {
      "inputs": [
        {
          "internalType": "uint256",
          "name": "index",
          "type": "uint256"
        }
      ],
      "name": "tokenByIndex",
      "outputs": [
        {
          "internalType": "uint256",
          "name": "",
          "type": "uint256"
        }
      ],
      "stateMutability": "view",
      "type": "function"
    },
    {
      "inputs": [
        {
          "internalType": "address",
          "name": "owner",
          "type": "address"
        },
        {
          "internalType": "uint256",
          "name": "index",
          "type": "uint256"
        }
      ],
      "name": "tokenOfOwnerByIndex",
      "outputs": [
        {
          "internalType": "uint256",
          "name": "",
          "type": "uint256"
        }
      ],
      "stateMutability": "view",
      "type": "function"
    },
    {
      "inputs": [
        {
          "internalType": "uint256",
          "name": "tokenId",
          "type": "uint256"
        }
      ],
      "name": "tokenURI",
      "outputs": [
        {
          "internalType": "string",
          "name": "",
          "type": "string"
        }
      ],
      "stateMutability": "view",
      "type": "function"
    },
    {
      "inputs": [
        {
          "internalType": "string",
          "name": "_tokenURI",
          "type": "string"
        }
      ],
      "name": "tokenURIExists",
      "outputs": [
        {
          "internalType": "bool",
          "name": "",
          "type": "bool"
        }
      ],
      "stateMutability": "view",
      "type": "function"
    },
    {
      "inputs": [],
      "name": "totalSupply",
      "outputs": [
        {
          "internalType": "uint256",
          "name": "",
          "type": "uint256"
        }
      ],
      "stateMutability": "view",
      "type": "function"
    },
    {
      "inputs": [
        {
          "internalType": "address",
          "name": "from",
          "type": "address"
        },
        {
          "internalType": "address",
          "name": "to",
          "type": "address"
        },
        {
          "internalType": "uint256",
          "name": "tokenId",
          "type": "uint256"
        }
      ],
      "name": "transferFrom",
      "outputs": [],
      "stateMutability": "nonpayable",
      "type": "function"
    },
    {
      "inputs": [
        {
          "internalType": "address",
          "name": "newOwner",
          "type": "address"
        }
      ],
      "name": "transferOwnership",
      "outputs": [],
      "stateMutability": "nonpayable",
      "type": "function"
    }
  ],
  "bytecode": "0x60806040526658d15e17628000600d556002600e553480156200002157600080fd5b50604080518082018252600c81526b10dc99585d1d5c995cd3919560a21b60208083019182528351808501909452600484526310d3919560e21b908401528151919291620000729160009162000106565b5080516200008890600190602084019062000106565b505050620000a56200009f620000b060201b60201c565b620000b4565b6001600c55620001e9565b3390565b600b80546001600160a01b038381166001600160a01b0319831681179093556040519116919082907f8be0079c531659141344cd1fd0a4f28419497f9722a3daafe3b4186f6b6457e090600090a35050565b8280546200011490620001ac565b90600052602060002090601f01602090048101928262000138576000855562000183565b82601f106200015357805160ff191683800117855562000183565b8280016001018555821562000183579182015b828111156200018357825182559160200191906001019062000166565b506200019192915062000195565b5090565b5b8082111562000191576000815560010162000196565b600181811c90821680620001c157607f821691505b60208210811415620001e357634e487b7160e01b600052602260045260246000fd5b50919050565b613bec80620001f96000396000f3fe6080604052600436106101e35760003560e01c806370a0823111610102578063a22cb46511610095578063d7c0691911610064578063d7c0691914610552578063e985e9c514610574578063f2fde38b146105bd578063f737d21d146105dd57600080fd5b8063a22cb465146104df578063b88d4fde146104ff578063c046372c1461051f578063c87b56dd1461053257600080fd5b806375d1f140116100d157806375d1f140146104845780638da5cb5b1461049957806395d89b41146104b75780639979ef45146104cc57600080fd5b806370a082311461040d57806370cbcb431461042d578063715018a61461044f578063747547761461046457600080fd5b806323b872dd1161017a5780634f6ccce7116101495780634f6ccce71461038d5780634fa7b507146103ad57806351ed8288146103da5780636352211e146103ed57600080fd5b806323b872dd1461030d5780632f745c591461032d57806342842e0e1461034d57806343d32ae71461036d57600080fd5b8063095ea7b3116101b6578063095ea7b31461028e5780630fd76c7c146102ae57806318160ddd146102ce57806319047819146102ed57600080fd5b806301ffc9a7146101e857806306fdde031461021d578063081812fc1461023f57806308747bbc14610277575b600080fd5b3480156101f457600080fd5b506102086102033660046133db565b6105fd565b60405190151581526020015b60405180910390f35b34801561022957600080fd5b5061023261060e565b6040516102149190613450565b34801561024b57600080fd5b5061025f61025a366004613463565b6106a0565b6040516001600160a01b039091168152602001610214565b34801561028357600080fd5b5061028c6106c7565b005b34801561029a57600080fd5b5061028c6102a9366004613498565b610710565b3480156102ba57600080fd5b5061028c6102c93660046134c2565b61082b565b3480156102da57600080fd5b506009545b604051908152602001610214565b3480156102f957600080fd5b5061028c6103083660046134e4565b61092e565b34801561031957600080fd5b5061028c61032836600461351f565b610bd6565b34801561033957600080fd5b506102df610348366004613498565b610c07565b34801561035957600080fd5b5061028c61036836600461351f565b610c1a565b34801561037957600080fd5b50610208610388366004613607565b610c35565b34801561039957600080fd5b506102df6103a8366004613463565b610c60565b3480156103b957600080fd5b506103cd6103c8366004613463565b610cf3565b604051610214919061363c565b61028c6103e8366004613463565b610d88565b3480156103f957600080fd5b5061025f610408366004613463565b611118565b34801561041957600080fd5b506102df61042836600461369e565b611178565b34801561043957600080fd5b506104426111fe565b60405161021491906136b9565b34801561045b57600080fd5b5061028c611323565b34801561047057600080fd5b5061028c61047f366004613463565b611337565b34801561049057600080fd5b50610442611463565b3480156104a557600080fd5b50600b546001600160a01b031661025f565b3480156104c357600080fd5b506102326115a5565b61028c6104da366004613463565b6115b4565b3480156104eb57600080fd5b5061028c6104fa36600461371b565b611843565b34801561050b57600080fd5b5061028c61051a366004613757565b611852565b6102df61052d3660046137d3565b61188a565b34801561053e57600080fd5b5061023261054d366004613463565b6119b2565b34801561055e57600080fd5b506105676119bd565b6040516102149190613818565b34801561058057600080fd5b5061020861058f3660046138a8565b6001600160a01b03918216600090815260056020908152604080832093909416825291909152205460ff1690565b3480156105c957600080fd5b5061028c6105d836600461369e565b611b3a565b3480156105e957600080fd5b5061028c6105f8366004613463565b611bb0565b6000610608826121e3565b92915050565b60606000805461061d906138db565b80601f0160208091040260200160405190810160405280929190818152602001828054610649906138db565b80156106965780601f1061066b57610100808354040283529160200191610696565b820191906000526020600020905b81548152906001019060200180831161067957829003601f168201915b5050505050905090565b60006106ab82612208565b506000908152600460205260409020546001600160a01b031690565b6106cf612258565b60015b601054811161070d5760008181526014602052604090205460ff16156106fb576106fb81611bb0565b806107058161392c565b9150506106d2565b50565b600061071b82611118565b9050806001600160a01b0316836001600160a01b0316141561078e5760405162461bcd60e51b815260206004820152602160248201527f4552433732313a20617070726f76616c20746f2063757272656e74206f776e656044820152603960f91b60648201526084015b60405180910390fd5b336001600160a01b03821614806107aa57506107aa813361058f565b61081c5760405162461bcd60e51b815260206004820152603d60248201527f4552433732313a20617070726f76652063616c6c6572206973206e6f7420746f60448201527f6b656e206f776e6572206f7220617070726f76656420666f7220616c6c0000006064820152608401610785565b61082683836122b2565b505050565b61083482612320565b6108505760405162461bcd60e51b815260040161078590613947565b3361085a83611118565b6001600160a01b0316146108b05760405162461bcd60e51b815260206004820152601a60248201527f4e6f7420746865206f776e6572206f662074686520746f6b656e0000000000006044820152606401610785565b600082815260126020526040902060020154600160a01b900460ff16156109195760405162461bcd60e51b815260206004820152601860248201527f546f6b656e206973206c697374656420666f722073616c6500000000000000006044820152606401610785565b60009182526012602052604090912060010155565b3361093886611118565b6001600160a01b0316146109845760405162461bcd60e51b8152602060048201526013602482015272556e617574686f72697a656420656e7469747960681b6044820152606401610785565b600085815260136020526040902060050154156109e35760405162461bcd60e51b815260206004820152601f60248201527f57696e6e65722073686f756c6420636c61696d207072697a65206669727374006044820152606401610785565b600085815260136020526040902060040154610100900460ff1615610a415760405162461bcd60e51b815260206004820152601460248201527341756374696f6e20616c7265616479206c69766560601b6044820152606401610785565b610a4c306001611843565b6040516323b872dd60e01b8152336004820152306024820181905260448201879052906323b872dd90606401600060405180830381600087803b158015610a9257600080fd5b505af1158015610aa6573d6000803e3d6000fd5b50505050604051806101000160405280868152602001336001600160a01b0316815260200160006001600160a01b031681526020016012600088815260200190815260200160002060010154815260200160001515815260200160011515815260200160008152602001610b1c8686868661233d565b905260009586526013602090815260408088208351815583830151600180830180546001600160a01b039384166001600160a01b031991821617909155868501516002850180549190941691161790915560608501516003830155608085015160048301805460a088015115156101000261ff00199315159390931661ffff199091161791909117905560c0850151600583015560e0909401516006909101556014909152909520805460ff191690951790945550505050565b610be033826123a1565b610bfc5760405162461bcd60e51b815260040161078590613975565b61082683838361241f565b6000610c138383612590565b9392505050565b61082683838360405180602001604052806000815250611852565b6000601182604051610c4791906139c2565b9081526040519081900360200190205460ff1692915050565b6000610c6b60095490565b8210610cce5760405162461bcd60e51b815260206004820152602c60248201527f455243373231456e756d657261626c653a20676c6f62616c20696e646578206f60448201526b7574206f6620626f756e647360a01b6064820152608401610785565b60098281548110610ce157610ce16139de565b90600052602060002001549050919050565b606060156000838152602001908152602001600020805480602002602001604051908101604052809291908181526020016000905b82821015610d7d576000848152602090819020604080516060810182526003860290920180546001600160a01b0316835260018082015484860152600290910154918301919091529083529092019101610d28565b505050509050919050565b610d90612626565b610d9981612320565b610db55760405162461bcd60e51b815260040161078590613947565b33610dbf82611118565b6001600160a01b03161415610e165760405162461bcd60e51b815260206004820152601960248201527f43616e6e6f742062757920796f7572206f776e20746f6b656e000000000000006044820152606401610785565b60008181526012602052604090206002810154600160a01b900460ff16610e7f5760405162461bcd60e51b815260206004820152601c60248201527f546f6b656e206973206e6f74206c697374656420666f722073616c65000000006044820152606401610785565b60006064600e548360010154610e9591906139f4565b610e9f9190613a29565b8260010154610eae9190613a3d565b9050803414610f0a5760405162461bcd60e51b815260206004820152602260248201527f5072696365206d75737420626520657175616c20746f20746f74616c20707269604482015261636560f01b6064820152608401610785565b6000610f1584611118565b9050610f2281338661241f565b60018301546040516000916001600160a01b038416918381818185875af1925050503d8060008114610f70576040519150601f19603f3d011682016040523d82523d6000602084013e610f75565b606091505b5050905080610fc65760405162461bcd60e51b815260206004820152601e60248201527f4661696c656420746f2073656e6420457468657220746f2073656c6c657200006044820152606401610785565b60006064600e548660010154610fdc91906139f4565b610fe69190613a29565b90506000610ffc600b546001600160a01b031690565b6001600160a01b03168260405160006040518083038185875af1925050503d8060008114611046576040519150601f19603f3d011682016040523d82523d6000602084013e61104b565b606091505b505090508061109c5760405162461bcd60e51b815260206004820152601e60248201527f4661696c656420746f2073656e64206d61726b6574706c6163652066656500006044820152606401610785565b60028601805460ff60a01b191690556110b5600f612680565b600186015460408051898152602081019290925281018390526001600160a01b0385169033907f5fafad85dec201c2e73b6a2bef6351129304a624ea8720ecd04cd7f04d83bc399060600160405180910390a350505050505061070d6001600c55565b6000818152600260205260408120546001600160a01b0316806106085760405162461bcd60e51b8152602060048201526018602482015277115490cdcc8c4e881a5b9d985b1a59081d1bdad95b88125160421b6044820152606401610785565b60006001600160a01b0382166111e25760405162461bcd60e51b815260206004820152602960248201527f4552433732313a2061646472657373207a65726f206973206e6f7420612076616044820152683634b21037bbb732b960b91b6064820152608401610785565b506001600160a01b031660009081526003602052604090205490565b6060600061120b33611178565b905060008167ffffffffffffffff8111156112285761122861355b565b60405190808252806020026020018201604052801561127a57816020015b6040805160808101825260008082526020808301829052928201819052606082015282526000199092019101816112465790505b50905060005b8281101561131c5760006112943383610c07565b600081815260126020908152604091829020825160808101845281548152600182015492810192909252600201546001600160a01b03811692820192909252600160a01b90910460ff16151560608201528451919250908490849081106112fd576112fd6139de565b60200260200101819052505080806113149061392c565b915050611280565b5092915050565b61132b612258565b61133560006126d7565b565b61134081612320565b61135c5760405162461bcd60e51b815260040161078590613947565b3361136682611118565b6001600160a01b0316146113bc5760405162461bcd60e51b815260206004820152601a60248201527f4e6f7420746865206f776e6572206f662074686520746f6b656e0000000000006044820152606401610785565b600081815260126020526040902060028101805460ff600160a01b808304821615810260ff60a01b1990931692909217928390559104161561140b57611406600f80546001019055565b611415565b611415600f612680565b600281015460408051848152600160a01b90920460ff16151560208301527f03ef70a0e4102c463026ac72316ae396a5ee1a5cbf7a115e522fc8eda3a152de91015b60405180910390a15050565b60606000611470600f5490565b67ffffffffffffffff8111156114885761148861355b565b6040519080825280602002602001820160405280156114da57816020015b6040805160808101825260008082526020808301829052928201819052606082015282526000199092019101816114a65790505b509050600060015b601054811161159d57600081815260126020526040902060020154600160a01b900460ff161561158b57600081815260126020908152604091829020825160808101845281548152600182015492810192909252600201546001600160a01b03811692820192909252600160a01b90910460ff16151560608201528351849084908110611571576115716139de565b602002602001018190525081806115879061392c565b9250505b806115958161392c565b9150506114e2565b509092915050565b60606001805461061d906138db565b60008181526013602052604090206003015434101561160b5760405162461bcd60e51b8152602060048201526013602482015272125b9cdd59999a58da595b9d08105b5bdd5b9d606a1b6044820152606401610785565b61161960008060008061233d565b600082815260136020526040902060060154116116705760405162461bcd60e51b815260206004820152601560248201527441756374696f6e206e6f7420617661696c61626c6560581b6044820152606401610785565b6000818152601360205260409020600101546001600160a01b03163314156116cd5760405162461bcd60e51b815260206004820152601060248201526f14d95b1b195c8818d85b89dd08189a5960821b6044820152606401610785565b600081815260166020908152604080832033845290915290205460ff16156117375760405162461bcd60e51b815260206004820152601d60248201527f596f75206861766520616c726561647920706c616365642061206269640000006044820152606401610785565b611764604051806060016040528060006001600160a01b0316815260200160008152602001600081525090565b33815234602082015261177a600080808061233d565b6040828101918252600084815260156020908152828220805460018082018355918452828420875160039092020180546001600160a01b0319166001600160a01b0390921691909117815582870151918101919091559351600290940193909355848152601390925281206005018054916117f48361392c565b909155505050600090815260136020908152604080832034600382015560020180546001600160a01b03191633908117909155601683528184209084529091529020805460ff19166001179055565b61184e338383612729565b5050565b61185c33836123a1565b6118785760405162461bcd60e51b815260040161078590613975565b611884848484846127f8565b50505050565b600061189583610c35565b156118e25760405162461bcd60e51b815260206004820152601860248201527f546f6b656e2055524920616c72656164792065786973747300000000000000006044820152606401610785565b600d54341461193f5760405162461bcd60e51b8152602060048201526024808201527f5072696365206d75737420626520657175616c20746f206c697374696e6720706044820152637269636560e01b6064820152608401610785565b61194d601080546001019055565b600061195860105490565b9050611964338261282b565b61196e8185612845565b6119788184612901565b600160118560405161198a91906139c2565b908152604051908190036020019020805491151560ff19909216919091179055905092915050565b6060610608826129ff565b606060006119ca60105490565b67ffffffffffffffff8111156119e2576119e261355b565b604051908082528060200260200182016040528015611a5157816020015b604080516101008101825260008082526020808301829052928201819052606082018190526080820181905260a0820181905260c0820181905260e08201528252600019909201910181611a005790505b509050600060015b601054811161159d5760008181526014602052604090205460ff1615611b2857600081815260136020908152604091829020825161010080820185528254825260018301546001600160a01b039081169483019490945260028301549093169381019390935260038101546060840152600481015460ff80821615156080860152929004909116151560a0830152600581015460c08301526006015460e08201528351849084908110611b0e57611b0e6139de565b60200260200101819052508180611b249061392c565b9250505b80611b328161392c565b915050611a59565b611b42612258565b6001600160a01b038116611ba75760405162461bcd60e51b815260206004820152602660248201527f4f776e61626c653a206e6577206f776e657220697320746865207a65726f206160448201526564647265737360d01b6064820152608401610785565b61070d816126d7565b6000818152601360205260409020600101546001600160a01b0316331480611bf1575033611be6600b546001600160a01b031690565b6001600160a01b0316145b611c335760405162461bcd60e51b8152602060048201526013602482015272556e617574686f72697a656420656e7469747960681b6044820152606401610785565b600081815260136020526040902060050154611cc857600081815260136020526040908190206001015490516323b872dd60e01b815230600482018190526001600160a01b039092166024820152604481018390526323b872dd90606401600060405180830381600087803b158015611cab57600080fd5b505af1158015611cbf573d6000803e3d6000fd5b50505050612020565b600081815260156020908152604080832054815144818501524281840152606080820183905283518083039091018152608090910190925281519190920120611d119190613a55565b60008381526015602052604081208054929350909183908110611d3657611d366139de565b60009182526020918290206040805160608101825260039390930290910180546001600160a01b03168084526001820154948401949094526002015482820152516323b872dd60e01b815230600482018190526024820193909352604481018690529092506323b872dd90606401600060405180830381600087803b158015611dbe57600080fd5b505af1158015611dd2573d6000803e3d6000fd5b5050505060006064600e548360200151611dec91906139f4565b611df69190613a29565b90506000611e0c600b546001600160a01b031690565b6001600160a01b03168260405160006040518083038185875af1925050503d8060008114611e56576040519150601f19603f3d011682016040523d82523d6000602084013e611e5b565b606091505b5050905080611eac5760405162461bcd60e51b815260206004820152601e60248201527f4661696c656420746f2073656e64206d61726b6574706c6163652066656500006044820152606401610785565b6000828460200151611ebe9190613a69565b60008781526013602052604080822060010154905192935090916001600160a01b039091169083908381818185875af1925050503d8060008114611f1e576040519150601f19603f3d011682016040523d82523d6000602084013e611f23565b606091505b5050905080611f745760405162461bcd60e51b815260206004820152601e60248201527f4661696c656420746f2073656e6420457468657220746f2073656c6c657200006044820152606401610785565b6000878152601360208181526040808420600481018054600160ff1991821681179092558b516002840180546001600160a01b0319166001600160a01b03928316179055601486529684902080549091169055938352929092015488518983015184518d81529384015292820188905283169291909116907f5fafad85dec201c2e73b6a2bef6351129304a624ea8720ecd04cd7f04d83bc399060600160405180910390a35050505050505b6000818152601560205260408120612037916132de565b60008181526015602052604081205467ffffffffffffffff81111561205e5761205e61355b565b604051908082528060200260200182016040528015612087578160200160208202803683370190505b50905060005b60008381526015602052604090205481101561211e5760008381526015602052604090208054829081106120c3576120c36139de565b600091825260209091206003909102015482516001600160a01b03909116908390839081106120f4576120f46139de565b6001600160a01b0390921660209283029190910190910152806121168161392c565b91505061208d565b5060005b815181101561218f57601660008481526020019081526020016000206000838381518110612152576121526139de565b6020908102919091018101516001600160a01b03168252810191909152604001600020805460ff19169055806121878161392c565b915050612122565b505060009081526013602052604081208181556001810180546001600160a01b031990811690915560028201805490911690556003810182905560048101805461ffff191690556005810182905560060155565b60006001600160e01b0319821663780e9d6360e01b1480610608575061060882612b08565b61221181612320565b61070d5760405162461bcd60e51b8152602060048201526018602482015277115490cdcc8c4e881a5b9d985b1a59081d1bdad95b88125160421b6044820152606401610785565b600b546001600160a01b031633146113355760405162461bcd60e51b815260206004820181905260248201527f4f776e61626c653a2063616c6c6572206973206e6f7420746865206f776e65726044820152606401610785565b600081815260046020526040902080546001600160a01b0319166001600160a01b03841690811790915581906122e782611118565b6001600160a01b03167f8c5be1e5ebec7d5bd14f71427d1e84f3dd0314c0f7b2291e5b200ac8c7c3b92560405160405180910390a45050565b6000908152600260205260409020546001600160a01b0316151590565b600061234c82620151806139f4565b61235884610e106139f4565b61236386603c6139f4565b61236e8860016139f4565b6123789042613a3d565b6123829190613a3d565b61238c9190613a3d565b6123969190613a3d565b90505b949350505050565b6000806123ad83611118565b9050806001600160a01b0316846001600160a01b031614806123f457506001600160a01b0380821660009081526005602090815260408083209388168352929052205460ff165b806123995750836001600160a01b031661240d846106a0565b6001600160a01b031614949350505050565b826001600160a01b031661243282611118565b6001600160a01b0316146124585760405162461bcd60e51b815260040161078590613a80565b6001600160a01b0382166124ba5760405162461bcd60e51b8152602060048201526024808201527f4552433732313a207472616e7366657220746f20746865207a65726f206164646044820152637265737360e01b6064820152608401610785565b6124c78383836001612b2d565b826001600160a01b03166124da82611118565b6001600160a01b0316146125005760405162461bcd60e51b815260040161078590613a80565b600081815260046020908152604080832080546001600160a01b03199081169091556001600160a01b0387811680865260038552838620805460001901905590871680865283862080546001019055868652600290945282852080549092168417909155905184937fddf252ad1be2c89b69c2b068fc378daa952ba7f163c4a11628f55a4df523b3ef91a4505050565b600061259b83611178565b82106125fd5760405162461bcd60e51b815260206004820152602b60248201527f455243373231456e756d657261626c653a206f776e657220696e646578206f7560448201526a74206f6620626f756e647360a81b6064820152608401610785565b506001600160a01b03919091166000908152600760209081526040808320938352929052205490565b6002600c5414156126795760405162461bcd60e51b815260206004820152601f60248201527f5265656e7472616e637947756172643a207265656e7472616e742063616c6c006044820152606401610785565b6002600c55565b8054806126cf5760405162461bcd60e51b815260206004820152601b60248201527f436f756e7465723a2064656372656d656e74206f766572666c6f7700000000006044820152606401610785565b600019019055565b600b80546001600160a01b038381166001600160a01b0319831681179093556040519116919082907f8be0079c531659141344cd1fd0a4f28419497f9722a3daafe3b4186f6b6457e090600090a35050565b816001600160a01b0316836001600160a01b0316141561278b5760405162461bcd60e51b815260206004820152601960248201527f4552433732313a20617070726f766520746f2063616c6c6572000000000000006044820152606401610785565b6001600160a01b03838116600081815260056020908152604080832094871680845294825291829020805460ff191686151590811790915591519182527f17307eab39ab6107e8899845ad3d59bd9653f200f220920489ca2b5937696c31910160405180910390a3505050565b61280384848461241f565b61280f84848484612b39565b6118845760405162461bcd60e51b815260040161078590613ac5565b61184e828260405180602001604052806000815250612c34565b61284e82612320565b6128b15760405162461bcd60e51b815260206004820152602e60248201527f45524337323155524953746f726167653a2055524920736574206f66206e6f6e60448201526d32bc34b9ba32b73a103a37b5b2b760911b6064820152608401610785565b600082815260066020908152604090912082516128d0928401906132ff565b506040518281527ff8e1a15aba9398e019f0b49df1a4fde98ee17ae345cb5f6b5e2c27f5033e8ce790602001611457565b600081116129515760405162461bcd60e51b815260206004820152601c60248201527f5072696365206d757374206265206174206c65617374203120776569000000006044820152606401610785565b60408051608081018252838152602080820184815233838501818152600060608087018281528a835260128752888320975188559451600188015591516002909601805494511515600160a01b026001600160a81b03199095166001600160a01b0390971696909617939093179094558451878152928301869052938201527f470031062672bc0246e132c723a729c4676710ec663a29e86c88678032daddea910160405180910390a25050565b6060612a0a82612208565b60008281526006602052604081208054612a23906138db565b80601f0160208091040260200160405190810160405280929190818152602001828054612a4f906138db565b8015612a9c5780601f10612a7157610100808354040283529160200191612a9c565b820191906000526020600020905b815481529060010190602001808311612a7f57829003601f168201915b505050505090506000612aba60408051602081019091526000815290565b9050805160001415612acd575092915050565b815115612aff578082604051602001612ae7929190613b17565b60405160208183030381529060405292505050919050565b61239984612c67565b60006001600160e01b03198216632483248360e11b1480610608575061060882612cda565b61188484848484612d2a565b60006001600160a01b0384163b15612c2c57604051630a85bd0160e11b81526001600160a01b0385169063150b7a0290612b7d903390899088908890600401613b46565b6020604051808303816000875af1925050508015612bb8575060408051601f3d908101601f19168201909252612bb591810190613b83565b60015b612c12573d808015612be6576040519150601f19603f3d011682016040523d82523d6000602084013e612beb565b606091505b508051612c0a5760405162461bcd60e51b815260040161078590613ac5565b805181602001fd5b6001600160e01b031916630a85bd0160e11b149050612399565b506001612399565b612c3e8383612e5e565b612c4b6000848484612b39565b6108265760405162461bcd60e51b815260040161078590613ac5565b6060612c7282612208565b6000612c8960408051602081019091526000815290565b90506000815111612ca95760405180602001604052806000815250610c13565b80612cb384612fd9565b604051602001612cc4929190613b17565b6040516020818303038152906040529392505050565b60006001600160e01b031982166380ac58cd60e01b1480612d0b57506001600160e01b03198216635b5e139f60e01b145b8061060857506301ffc9a760e01b6001600160e01b0319831614610608565b6001811115612d995760405162461bcd60e51b815260206004820152603560248201527f455243373231456e756d657261626c653a20636f6e7365637574697665207472604482015274185b9cd9995c9cc81b9bdd081cdd5c1c1bdc9d1959605a1b6064820152608401610785565b816001600160a01b038516612df557612df081600980546000838152600a60205260408120829055600182018355919091527f6e1540171b6c0c960b71a7020d9f60077f6af931a8bbf590da0223dacf75c7af0155565b612e18565b836001600160a01b0316856001600160a01b031614612e1857612e188582613076565b6001600160a01b038416612e3457612e2f81613113565b612e57565b846001600160a01b0316846001600160a01b031614612e5757612e5784826131c2565b5050505050565b6001600160a01b038216612eb45760405162461bcd60e51b815260206004820181905260248201527f4552433732313a206d696e7420746f20746865207a65726f20616464726573736044820152606401610785565b612ebd81612320565b15612f0a5760405162461bcd60e51b815260206004820152601c60248201527f4552433732313a20746f6b656e20616c7265616479206d696e746564000000006044820152606401610785565b612f18600083836001612b2d565b612f2181612320565b15612f6e5760405162461bcd60e51b815260206004820152601c60248201527f4552433732313a20746f6b656e20616c7265616479206d696e746564000000006044820152606401610785565b6001600160a01b038216600081815260036020908152604080832080546001019055848352600290915280822080546001600160a01b0319168417905551839291907fddf252ad1be2c89b69c2b068fc378daa952ba7f163c4a11628f55a4df523b3ef908290a45050565b60606000612fe683613206565b600101905060008167ffffffffffffffff8111156130065761300661355b565b6040519080825280601f01601f191660200182016040528015613030576020820181803683370190505b5090508181016020015b600019016f181899199a1a9b1b9c1cb0b131b232b360811b600a86061a8153600a85049450846130695761306e565b61303a565b509392505050565b6000600161308384611178565b61308d9190613a69565b6000838152600860205260409020549091508082146130e0576001600160a01b03841660009081526007602090815260408083208584528252808320548484528184208190558352600890915290208190555b5060009182526008602090815260408084208490556001600160a01b039094168352600781528383209183525290812055565b60095460009061312590600190613a69565b6000838152600a60205260408120546009805493945090928490811061314d5761314d6139de565b90600052602060002001549050806009838154811061316e5761316e6139de565b6000918252602080832090910192909255828152600a909152604080822084905585825281205560098054806131a6576131a6613ba0565b6001900381819060005260206000200160009055905550505050565b60006131cd83611178565b6001600160a01b039093166000908152600760209081526040808320868452825280832085905593825260089052919091209190915550565b60008072184f03e93ff9f4daa797ed6e38ed64bf6a1f0160401b83106132455772184f03e93ff9f4daa797ed6e38ed64bf6a1f0160401b830492506040015b6d04ee2d6d415b85acef81000000008310613271576d04ee2d6d415b85acef8100000000830492506020015b662386f26fc10000831061328f57662386f26fc10000830492506010015b6305f5e10083106132a7576305f5e100830492506008015b61271083106132bb57612710830492506004015b606483106132cd576064830492506002015b600a83106106085760010192915050565b508054600082556003029060005260206000209081019061070d9190613383565b82805461330b906138db565b90600052602060002090601f01602090048101928261332d5760008555613373565b82601f1061334657805160ff1916838001178555613373565b82800160010185558215613373579182015b82811115613373578251825591602001919060010190613358565b5061337f9291506133b0565b5090565b5b8082111561337f5780546001600160a01b03191681556000600182018190556002820155600301613384565b5b8082111561337f57600081556001016133b1565b6001600160e01b03198116811461070d57600080fd5b6000602082840312156133ed57600080fd5b8135610c13816133c5565b60005b838110156134135781810151838201526020016133fb565b838111156118845750506000910152565b6000815180845261343c8160208601602086016133f8565b601f01601f19169290920160200192915050565b602081526000610c136020830184613424565b60006020828403121561347557600080fd5b5035919050565b80356001600160a01b038116811461349357600080fd5b919050565b600080604083850312156134ab57600080fd5b6134b48361347c565b946020939093013593505050565b600080604083850312156134d557600080fd5b50508035926020909101359150565b600080600080600060a086880312156134fc57600080fd5b505083359560208501359550604085013594606081013594506080013592509050565b60008060006060848603121561353457600080fd5b61353d8461347c565b925061354b6020850161347c565b9150604084013590509250925092565b634e487b7160e01b600052604160045260246000fd5b600067ffffffffffffffff8084111561358c5761358c61355b565b604051601f8501601f19908116603f011681019082821181831017156135b4576135b461355b565b816040528093508581528686860111156135cd57600080fd5b858560208301376000602087830101525050509392505050565b600082601f8301126135f857600080fd5b610c1383833560208501613571565b60006020828403121561361957600080fd5b813567ffffffffffffffff81111561363057600080fd5b612399848285016135e7565b602080825282518282018190526000919060409081850190868401855b8281101561369157815180516001600160a01b0316855286810151878601528501518585015260609093019290850190600101613659565b5091979650505050505050565b6000602082840312156136b057600080fd5b610c138261347c565b602080825282518282018190526000919060409081850190868401855b82811015613691578151805185528681015187860152858101516001600160a01b031686860152606090810151151590850152608090930192908501906001016136d6565b6000806040838503121561372e57600080fd5b6137378361347c565b91506020830135801515811461374c57600080fd5b809150509250929050565b6000806000806080858703121561376d57600080fd5b6137768561347c565b93506137846020860161347c565b925060408501359150606085013567ffffffffffffffff8111156137a757600080fd5b8501601f810187136137b857600080fd5b6137c787823560208401613571565b91505092959194509250565b600080604083850312156137e657600080fd5b823567ffffffffffffffff8111156137fd57600080fd5b613809858286016135e7565b95602094909401359450505050565b602080825282518282018190526000919060409081850190868401855b8281101561369157815180518552868101516001600160a01b03908116888701528682015116868601526060808201519086015260808082015115159086015260a08082015115159086015260c0808201519086015260e090810151908501526101009093019290850190600101613835565b600080604083850312156138bb57600080fd5b6138c48361347c565b91506138d26020840161347c565b90509250929050565b600181811c908216806138ef57607f821691505b6020821081141561391057634e487b7160e01b600052602260045260246000fd5b50919050565b634e487b7160e01b600052601160045260246000fd5b600060001982141561394057613940613916565b5060010190565b602080825260149082015273151bdad95b88191bd95cc81b9bdd08195e1a5cdd60621b604082015260600190565b6020808252602d908201527f4552433732313a2063616c6c6572206973206e6f7420746f6b656e206f776e6560408201526c1c881bdc88185c1c1c9bdd9959609a1b606082015260800190565b600082516139d48184602087016133f8565b9190910192915050565b634e487b7160e01b600052603260045260246000fd5b6000816000190483118215151615613a0e57613a0e613916565b500290565b634e487b7160e01b600052601260045260246000fd5b600082613a3857613a38613a13565b500490565b60008219821115613a5057613a50613916565b500190565b600082613a6457613a64613a13565b500690565b600082821015613a7b57613a7b613916565b500390565b60208082526025908201527f4552433732313a207472616e736665722066726f6d20696e636f72726563742060408201526437bbb732b960d91b606082015260800190565b60208082526032908201527f4552433732313a207472616e7366657220746f206e6f6e20455243373231526560408201527131b2b4bb32b91034b6b83632b6b2b73a32b960711b606082015260800190565b60008351613b298184602088016133f8565b835190830190613b3d8183602088016133f8565b01949350505050565b6001600160a01b0385811682528416602082015260408101839052608060608201819052600090613b7990830184613424565b9695505050505050565b600060208284031215613b9557600080fd5b8151610c13816133c5565b634e487b7160e01b600052603160045260246000fdfea264697066735822122083c2e2874201013b1296cda7d94cfed12b707ee021555b1840e6f619529149da64736f6c634300080b0033",
  "linkReferences": {},
  "deployedLinkReferences": {}
}